:020000040800F2
:10000000F8FF002045990208873402087534020879
:100010008934020899340208A9340208000000005B
:10002000000000000000000000000000B9340208D9
:10003000BB3402080000000035390208913902087B
:100040002998020829350208353502083D3502088D
:100050002998020829980208BD340208C33402080E
:10006000C9340208CF340208D5340208895B02087B
:10007000995B0208A95B0208B95B0208C95B020828
:10008000D95B0208E95B0208299802080000000019
:10009000000000000000000000000000DB34020847
:1000A0005135020857350208693502086F350208D4
:1000B000753502087B350208813502082998020847
:1000C0002998020829980208299802082998020804
:1000D00029980208A1350208A7350208000000008F
:1000E000FF3402082F35020829980208000000009A
:1000F000000000000000000000000000F95B0208A2
:100100000000000029980208893502082998020891
:1001100000000000000000000000000000000000DF
:10012000095C0208195C0208295C0208395C0208B3
:10013000495C020800000000000000000000000010
:1001400000000000000000000000000029980208E4
:10015000595C0208695C0208795C0208AD35020846
:1001600029980208299802080000000000000000F9
:10017000000000000000000000000000000000007F
:1001800000000000299802080000000000000000A4
:0401900029980208A0
:10019400034B1B685B685A69026058610020704712
:1001A40078090020034B1B685B685A6912685A611E
:1001B400704700BF78090020C4600561466187610B
:1001C400C0F81C80C0F82090C0F824A0C0F828B063
:1001D400C0F82CD080ED0C8B80ED0E9B80ED10AB25
:1001E400C0F808E0FFF7D4BF08B5114B1B68596885
:1001F4004B690BB922F06AFF1A6858604A611846C5
:10020400C468056946698769D0F81C80D0F82090D5
:10021400D0F824A0D0F828B0D0F82CD090ED0C8BD6
:1002240090ED0E9B90ED10ABD0F808E001207047E4
:100234007809002010B50021044600F0C9FA18B965
:1002440014B1204609F062F810BD002100F0C0BAD4
:1002540010B50121044600F0BBFA18B914B12046C8
:1002640009F054F810BDFFF7E5BF10B501220C46A4
:1002740000F0C8FB18B914B1204609F047F810BDC6
:1002840000F0C0BB00F07EBB2DE9F0432A4C0025F2
:100294000326D4F888720021013143189A0803F028
:1002A4000303BA5C5B0042FA03F303F00303022B7B
:1002B400F2D0D4F8943209018A0803EB001089B310
:1002C40000EB820103681A0729D1D4F894229A42D8
:1002D40025D89A1AC2F301174FEA470ED4F8987238
:1002E4009F424FEA921C4FEA121218D9D4F888821E
:1002F40018F80C9049FA0EF707F00307012F0ED1F6
:1003040006FA0EF305F5A87E3F2D43EA090308F823
:100314000C309ABF24F81E200135C4F89C720430B6
:100324008842CFD12DB1013D05F5A87334F81300EF
:10033400AFE7BDE8F08300BF30060020F0B4194EEB
:10034400D6E9A443C01AC109C0F30215635C0122B3
:10035400AA4023EA02036354D6F82C238309040930
:10036400B2EB901FD6F8880288BFC6F82C33C15C64
:10037400A50804F0030303275B0007FA03F321EA4B
:10038400030343550134D6F88802A50804F0030397
:10039400415D5A0041FA02F202F00302022AEBD054
:1003A400F0BC70473006002021F00F0370B5164AE8
:1003B400164D1C1AE400A2FB0424640A0219A3EBE0
:1003C4008416C5F8902200212246C5E9A563C5E933
:1003D400A2041EF0FFFEA2000732D2080021D5F8C5
:1003E40090021EF0F7FE0A4B1B6858680121002397
:1003F4004FF0FF32C5F82C330381C5F82433A5F838
:100404002013C5F8282370BDF32C23FA30060020EE
:1004140078090020034B1B685A6813890133138140
:10042400704700BF78090020034B1B685A68138982
:10043400013B1381704700BF78090020034B1B6800
:100444005B681889003818BF0120704778090020BC
:10045400F8B51E4B1E4C1B6859680B8900220133EA
:100464000B8104F10805C4F82423C4F89C2204F584
:10047400EE76032755F8042F13071AD1D4F8940203
:10048400824216D3D4F89812101AC0F301138A4288
:100494004FEA901C4FEA43034FEA101009D2D4F8F4
:1004A400881211F80CE04EFA03F202F00302012A5A
:1004B40002D0AE42DED1F8BD07FA03F343EA0E03DD
:1004C40001F80C30FFF7E0FEF3E700BF78090020E5
:1004D4003006002081B3F8B5041F184E04EB8105E3
:1004E400032754F8043F1A071AD1D6F89402984205
:1004F40016D8D6F89812181AC0F3011299424FEA86
:10050400901C4FEA42024FEA101009D9D6F888121B
:1005140011F80CE04EFA02F303F00303012B02D0AE
:10052400A542DED1F8BD07FA02F242EA0E0201F852
:100534000C20FFF7A9FEF3E7704700BF3006002048
:100544002DE9F04F5B4CD4F89C3285B0002B00F0C1
:10055400AC80D4F88C3200269A00C4F89C62002A3D
:1005640043D00025D4F88812AB08CB5C05F0030116
:1005740049000B4103F00303032B42D0013595429C
:10058400F0D3D4F89C32002BE7D172B34FF0000EB5
:1005940076464FF0030A4FF001094FF0020804E0D9
:1005A400012B4CD0013696421FD2D4F888C2B7082A
:1005B40006F003051CF807106D0041FA05F303F07B
:1005C4000303022B0CEB96002BD0032BE8D108FA83
:1005D40005F521EA05010CF80710D4F88C32013630
:1005E4009A0096424FF0000EDFD3334B1B685A68D3
:1005F40013890021013BC4F82C13138105B0BDE815
:10060400F08F2846FFF740FED4F88C320135B5EB65
:10061400830F4FEA8302A5D3D4F89C32002B9CD1DC
:10062400B3E7BEF1000FBDD00AFA05F521EA0501D2
:100634000170D4F88C324FF0010E9A00B2E7D4F86E
:100644009022F30806F0070B12F803C001934CFA4A
:100654000BFE1EF0010F02EBD602E5D0D4F8940293
:100664003101415800EB0610A1B102AAB12108F0F2
:1006740003F8DDE9013242B109F092F8DDE9020143
:1006840009F05EF809F0A2F8019BD4F8902212F860
:1006940003C01A4409FA0BFB2CEA0B0C82F800C0C5
:1006A400D4F88832D95DD819BEE7D4F88C329A00D0
:1006B4006BE700BF3006002078090020054B06498F
:1006C4001B685A681389013313810023C1F89C32D3
:1006D400FFF736BF78090020300600203B4BD3E9F2
:1006E400A5122DE9F047D3E9A2760023C0E902332D
:1006F400C0E90433521AC0E900231D4683619E46B3
:100704009C461C461A46994619469846B60017F860
:10071400093049000B4103F00303012B49D0022B9C
:1007240043D0002B39D0013296420ED04FEA9209C1
:1007340002F0030117F809304FEA410A43FA0AF3B9
:1007440013F0030301D0012BE1D1012C11D0022CB1
:1007540002D14169013141618169A14238BF84619B
:1007640096420FD0012B28D04FEA920902F00301E0
:10077400CDE70169013101618169A14238BF84611A
:100784009642EFD1C44501D9C0F80CC02D014FEAFF
:100794000E13C0E90153BDE8F0870EF1010EC0F855
:1007A40008E00CF1010C1C46BDE70135456001343D
:1007B400B9E7013545601C46B5E7E04502D2C0F80B
:1007C4000CC0E0464FF0000CCEE700BF300600201E
:1007D4000F302DE9F843060953D0684B1B685B685A
:1007E4001B89002B4DD1664CB4F82033002B0D46E9
:1007F4000CBF4FF0010E4FF0000E47D1D4F82C037C
:10080400D4F88C72874239D9D4F888C2411E614425
:1008140000221AE00132964253D913F00C0F1ED174
:100824000132964240F2A08013F0300F1CD1013205
:10083400964240F29C8013F0C00F1AD101329642C6
:1008440040F298800130B84218D211F8013F13F0F9
:10085400030FDFD013F00C0F4FF00002E0D013F0C1
:10086400300F4FF00002E2D013F0C00F4FF000023F
:10087400E4D00130B8424FF00002E6D3BEF1000FDD
:1008840014D04FF000084046BDE8F883D4E9C923EA
:100894009A42B3D326F06CFBD4F82C03D4F88C72B0
:1008A400B84238BF4FF0010EAED3EAE726F060FB42
:1008B400D4F82C03D4F88C7287424FF0010EA3D8DD
:1008C400DFE78000811A012A01F1010703D1431CEB
:1008D4009B08C4F82C334FEA970E07F003031CF867
:1008E4000E904FEA4308012303FA08F3023143EA66
:1008F400090388420CF80E3013D34FF002084FEA74
:10090400910CD4F888E201F003031EF80C905B000C
:1009140008FA03F3013143EA090388420EF80C3064
:10092400EDD2D4F89492D4F8243309EB07181E447A
:10093400120140460021C4F824631EF04BFCEB076F
:100944004FEA07169FD50023D4F8901249F80630D1
:10095400FA080123885C07F0070703FA07F707433F
:100964008F544046BDE8F88380000130AAE7800038
:100974000230A7E780000330A4E700BF7809002015
:1009840030060020044B1B685B681A8912B908B151
:10099400FFF7D4BC704700BF7809002010F00F02A5
:1009A4001CD11749D1F89432834218D810B4D1F825
:1009B400984284420ED9C31AD1F888429909C3F3E4
:1009C4000110615C4000014101F0030101294FEA7B
:1009D400131306D010465DF8044B704700221046EE
:1009E400704701329918880801F00301205C49001E
:1009F40040FA01F101F003010229F2D01201E9E702
:100A0400300600202DE9F04F8A4683B007460028BF
:100A140000F0B58000297CD0DFF87C91D9F8003053
:100A24005B681D89002D7AD15A48D0F89412D0F809
:100A34008C32791A4FEA111C0CF1010E0AF10F06DF
:100A44009C00BEEB830F01944FEA161680F09E8043
:100A5400D0F888B24FF001084FEA9E040EF0030369
:100A64001BF804405B0044FA03F303F00303022B76
:100A74005AD023B9013505EB0803B34256D3464592
:100A840042D025D34544B54256D2002A47D0D0F8A7
:100A94009032C9090CF0070C595C41FA0CF101F0D1
:100AA40001015046FFF794FE0446002837D04FEA70
:100AB400081239461EF048FBD9F800305B681B89E0
:100AC4001BBB3846FFF73AFC204603B0BDE8F08F65
:100AD40066443446C4444FF00309A108D0F8885250
:100AE40004F003036A5C5B0009FA03F3013422EAAD
:100AF400030364456B54F0D1D0F82C33B208B3EB44
:100B0400960F88BFC0F82C233C46204603B0BDE8AE
:100B1400F08F214B1B685B681C89002CD2D0002409
:100B2400204603B0BDE8F08F08F10108019B0EF1E7
:100B3400010E734590D1A2E70CEB0802B44494452E
:100B440010D902219408D0F8885202F0030315F852
:100B540004E05B0001FA03F3013243EA0E03944517
:100B64002B55EFD1A6EB0802120107EB0810002168
:100B74001EF030FB3C46204603B0BDE8F08F014632
:100B8400504603B0BDE8F04FFFF722BE4FF0010816
:100B940075E700BF300600207809002010B58AB040
:100BA4000B4C03A8FFF79AFD059B00930949DDE967
:100BB4000323204600F070FF069A099B01920093DC
:100BC4000549DDE90723204600F066FF0AB010BDA1
:100BD400C8FB0208DCC6020800C702082DE9F0477A
:100BE400DFF86CA14B49DAF894224B4800F054FF2B
:100BF400DAF88C12890078D0DFF85891DFF8588140
:100C0400454F00250EE0012E3ED02E2243493846A2
:100C140000F042FFDAF88C320135B5EB830F4FEA6E
:100C2400830162D215F03F0610D005F0030676006A
:100C3400DAF88822AB08D35C43FA06F606F003061A
:100C4400022E1FD0032EDED16D22DFE7DAF88802F0
:100C54002C46A20804F00303825C5B0042FA03F30F
:100C64009B0702D101348C42F3D3621B7F2A30D814
:100C740005F00306760009EA05124146384600F0FD
:100C84000BFFD5E73D22C1E7DAF89412244B2A0181
:100C94008A589A422FD0234B9A422ED0224B9A4202
:100CA4002FD0224B9A422AD0214B9A4227D0214B53
:100CB4009A4228D0204B9A4225D0204B9A4226D0E3
:100CC4001F4B9A4221D01F4B9A420CBF4D226822DF
:100CD4009CE71D499209384600F0DEFEDAF88C32B2
:100CE40024F03F05B5EB830FC5D3BDE8F0471749A2
:100CF400094800F047BB542288E74C2286E7532278
:100D040084E7442282E7412280E742227EE74622AA
:100D14007CE700BF48C70208C8FB02088CC702086A
:100D2400002A0308B41B0308A80E0308802703083D
:100D340024250308280B0308B00A0308AC1603088B
:100D440000170308501D030868C7020864C7020897
:100D540030060020F0FF0F0084C70208054A03464E
:100D6400106A1A6841688A4202D3521A1A6070479C
:100D74000068F7E730060020014441F20553884239
:100D840004D398B2012838BF0120704710F8012B12
:100D940003EB43135340F2E7034B044A1A62002265
:100DA400C3F8E021704700BF3006002054ED02086C
:100DB4002DE9F04780460E46FFF7DEFF124B1C6A12
:100DC40007460CB920461AE0D4F80C90002504F12B
:100DD400180A4D4501D12468F3E7236933F8153027
:100DE400BB420ED163695B5DB3420AD15AF8250058
:100DF400324641461EF004FA18B960682844BDE83A
:100E0400F0870135E5E700BF300600202DE9F04703
:100E140080460E46FFF7CCFF0246002840F08B8048
:100E2400FF2E03D94549464807F0A0FC454CD4F8A9
:100E3400E001751C90B1D4E979132B448B4229D974
:100E44002944FFF71DFA0746D8B90246D4F8E81139
:100E5400D4F8E001FFF714FAC4F8E071802D2F46AE
:100E640038BF80273846FFF7F0F9C4F8E001D0BB5B
:100E74002846FFF7EAF9C4F8E00198BB284608F0D1
:100E840045FAD4F8E4312B44C4F8E431D4F8E03121
:100E9400002BE3D0D4F8E831D4F8E0711D44314696
:100EA40040461F44C4F8E851FFF766FF4FF00009BD
:100EB40041460546324638461EF046F907F8069084
:100EC400236AD3E90283434525D30E2000FB08F0AF
:100ED40018304FEA480AFFF7B8F950B9C4F8E001EE
:100EE4005046CCE72F460023C4F8E471C4F8E83137
:100EF400D0E700F11803226A026003EBC803036120
:100F040003EB880343615368D268C0F80C90134420
:100F1400C0E9013A2062236AD3E903215B6921F81D
:100F240012509E54911D236A43F82170D968586861
:100F34000131D96002441046BDE8F0878FC702082A
:100F44002C1403083006002010B504461EF07AF96C
:100F540001462046BDE81040FFF758BF07B5019091
:100F640001A8FFF7FBFE019A036933F8120003B0EE
:100F74005DF804FB07B5019001A8FFF7EFFE019BA4
:100F84004269D05C03B05DF804FB07B5019001A889
:100F9400FFF7E4FE019B063350F8230003B05DF82D
:100FA40004FB13B5019001A80C46FFF7D7FE019B83
:100FB4004269D25C2260063350F8230002B010BDAF
:100FC4002DE9F8431D46002303600B6013602B607A
:100FD400164BDFF85C901C6A0746884616460CB12F
:100FE4004C4505D12B68326813442B60BDE8F88367
:100FF4003B6801333B60E268D8F800301344C8F81A
:1010040000306269E368D1188A4207D32046FFF7AB
:10101400C5FC2B68246818442860E0E7336812F89C
:10102400010B013303443360EEE700BF30060020B8
:1010340054ED02082DE9F8430D4B0E4F1C6ADFF8FE
:101044003880DFF838900CB1BC4201D1BDE8F88398
:10105400E36804F1180505EB8306B54201D324685F
:10106400F1E755F8042B4146484600F015FDF4E736
:101074003006002054ED020894C70208C8FB020899
:1010840030B50023202411F8012F0AB9027030BDB5
:10109400120600F101051FD50BB1047028460B7828
:1010A400124A03F07F036BB9013A12F8013F13F0BF
:1010B400800F054600F101000BD003F07F032B7075
:1010C4000123E0E712F9015B002DFBDA013BDBB2FF
:1010D400E9E700F8013CE8E7012B04BF0470284667
:1010E4000B7800F8013B0223CDE700BF9BC7020841
:1010F40038B54468036821449942054611D9037BF5
:10110400DB0703D50748002107F030FB01F1100489
:1011140024F00704083480682146FFF7A6F82C6001
:10112400A86038BD2C14030870B504460E46114659
:101134001546FFF7DDFFD4E901302A46314618444D
:101144001EF030F862682A44626070BD70B546686B
:10115400B142044628BF31460D460121FFF7C8FFBE
:10116400A368681C5919721B18441EF01BF86368A5
:10117400A06801336360284470BD38B50129044672
:1011840038BF01210025084621606560FFF752F849
:10119400237BA06065F30003237338BD38B505468F
:1011A4000C460131FFF7E9FF6C6038BD0023C0E94C
:1011B4000132037B016043F00103037370470000B5
:1011C40038B514460546FFF7D8FF024B2560636027
:1011D40038BD00BF2D110008037BDB0710B50446A2
:1011E40002D48068FFF74EF80023A36010BD13B546
:1011F40001901020FFF71EF801990446FFF7BDFF88
:10120400204602B010BD10B5044650B1037BDB0785
:1012140002D48068FFF736F82046BDE81040FFF797
:1012240031B810BD38B5037BDB0704460D4603D542
:101234000748002107F09AFA016880682944FFF7FB
:1012440014F82368A0601D442560184438BD00BF0D
:101254002C14030838B504460D46FFF749FFD4E9BA
:1012640001301D446560184438BDD0E900239A421A
:1012740010B5044602D10121FFF7D4FFD4E90132AD
:101284000021D154A06810BD10B50C460121FFF710
:10129400E1FF047010BD7F29F8B50C46CEB204D826
:1012A4000121FFF7D7FF0670F8BD06F03F06B1F540
:1012B400006FC1F3871546F0800607D20221FFF7BD
:1012C400C9FF65F03F0505704670EDE705F03F0581
:1012D400B1F5803FC1F3073745F0800508D20321FB
:1012E400FFF7B8FF67F01F07077045708670DBE7EC
:1012F4000421FFF7AFFFA40C07F03F0764F00F04CD
:1013040067F07F07047047708570C670CCE713B52B
:101314000446084601911DF095FF019902462046B6
:1013240002B0BDE81040FFF7FFBE10B51446FFF74A
:101334000DFF047010BD10B51446FFF707FF0470CD
:1013440010BD43688B422CBF591A0021416070477D
:1013540038B50446154662688A42084603D92944CA
:101364008A4201D8606038BDA368521A18441944EF
:101374001DF018FF6268521B6260F4E708461146CC
:101384001EF0FEBC37B50546084601911DF05AFF14
:10139400044620B102466B680199286898472046A4
:1013A40003B030BD2DE9F74F89469DF8301017463C
:1013B4000D9A11F0DF0F0646A2EB07023DD030294B
:1013C40025490CA813BF804688464FF0100A4FF0F9
:1013D400010A13F0800535D002EBD2746510A2EB3C
:1013E4006404002D35DDAB46DA4552467368306837
:1013F400A8BF5A46414601929847019AABEB020BAB
:10140400BBF1000FF0DC2FB1736830683A464946EF
:1014140098473D44002C0CDD2544A2455746A8BFFF
:101424002746736830683A464146E41B9847002CC7
:10143400F3DC284603B0BDE8F08FDFF820804FF0DE
:10144400100AC6E713F0010401D11546C9E7144692
:10145400D9E70025D7E700BFE1FB0208D0FB02086B
:101464002DE9F04389B006460020119D9DF848807F
:10147400139F8DF80F000AB381421ADA2D228DF8DA
:101484000F204942109A08ACA2F10A000DF110098C
:10149400B1FBF3FC03FB1C12092A8CBF1218303277
:1014A40004F8012D4C458E4661460ED07345EFD9A4
:1014B4000BE0A80727D52B228DF80F200029E1D1B6
:1014C40030238DF81F300DF11F0415F040099DF8ED
:1014D4000F301CD023B30122CDE900822B460DF13D
:1014E4000F013046FFF75EFF013F814608AACDE9B0
:1014F40000872B46121B21463046FFF753FF484412
:1015040009B0BDE8F0836A07D8D52022D4E7002BC0
:10151400ECD004AA9442E9D904F8013C013CE5E783
:101524009946E3E72DE9F04F93B081461D46C8077D
:101534009DF874301C9E0693DDE91E7A0C46904695
:101544000BD4A10703D12268794B9A4205D02046D7
:1015540008F058FE400040F0010416F0810306D163
:10156400069A302A03D15745B8BF57469A462046B3
:101574000BF0A6FB00280DF1280B18DBB20712D5DF
:101584002B238DF828300DF12902F006EDB21DD57C
:10159400B8F1020F0DD11346302103F8021B691C68
:1015A40051701A4612E0730701D52023E9E75A4621
:1015B400EBE7B8F1080F60D1B1054FF030031370B9
:1015C40045BF05F10E03537001320232A2EB0B0347
:1015D400002116F0200F117005930EAA0CBF0B46C4
:1015E4002C23BAF1010F0B92C8BF46F0400610221B
:1015F400CDE90C2116F04002CDE902538DF82710F5
:10160400079244D0CDE9008123460DAA0CA90BA86A
:101614000BF036FA03782D2B804606D18DF827304F
:101624000D9B013B00F101080D93BAF1010F3CDD64
:101634000D9D079B5545B8BF55462BB19DF82730E6
:1016440003B10135059B1D44AF422BDD16F00103A8
:10165400A7EB050527D12C461D4626F001064CB103
:10166400202300930023019432491A464846FFF789
:1016740099FE04463023069319E0B8F1100FA5D162
:101684001346302103F8021B05F1170188E70AAB62
:10169400CDE900830DAA23460CA90BA80BF0F0F9A1
:1016A4008046C2E700250024D7E700252C46079B87
:1016B400DBB19DF8273053B100230122CDE900327C
:1016C4000DF127014846FFF76DFE013F0444059BD9
:1016D4005BB100230122CDE900325946059A484600
:1016E400FFF760FE059B0444FF1A069B0093BAF1C2
:1016F400010FC8BF57460D9A0197334641464846E5
:10170400FFF750FE04444DB1202300930023094900
:1017140001951A464846FFF745FE04440B980EAB64
:10172400984201D0FEF7AEFD204613B0BDE8F08F1D
:10173400481A03087F6103082DE9F04316468BB06D
:10174400B207DDF84890074698463DD416F0040FDA
:101754000CBF0023202300930A46139B202102A8D8
:1017640006F0D2F8F30504460DD5431C1F2B0AD806
:101774000AAA1444252204F8202C0AAA1A44002197
:1017840002F8201C1C4616F040051FD09DF80830B6
:101794002F2B4FF000031BD8012202A9CDE9003200
:1017A4003846FFF7FFFD09F1FF390546013C0DF10D
:1017B4000901CDE90089334622463846FFF7F2FD98
:1017C40028440BB0BDE8F0832B23C4E702A9F0E75B
:1017D40002A91D46EDE700002DE9F04F824689B0CD
:1017E400144600260B461D4613F8012B82B9A94264
:1017F40011D30B78002B00F04681013120234FF0E8
:1018040000080A4612F8015B7DB94FF00A0C2AE081
:10181400252AE8D1EBE76F1ADAF80430DAF8000089
:101824003A4698473E442946E3E72D2D03D148F034
:1018340001081146E5E72B2D02D148F00208F8E72C
:10184400202D02D148F00408F3E7212D02D148F0FD
:101854000808EEE7302D22D148F040082B46E8E78F
:101864000CFB0525303D0F4611F8012BA2F1300089
:101874000928F5D92E2A42D17A782A2A11D00A4683
:101884004FF00A0C0021174612F801BBABF13000EF
:10189400092809D80CFB01BBABF13001F3E70025A3
:1018A400B3E754F8041B023721EAE17B3A786C2A47
:1018B40008BF013797F80090B9F1000F00F0E380FA
:1018C400B9F1780F6BD8B9F1570F1BD8B9F1470F9D
:1018D40062D8B9F1440F62D9073424F00704F4E85C
:1018E400020104932AF02CFDCDE9005B00EE100AFE
:1018F400049B424649465046FFF71EFF63E04FF003
:10190400FF3BD3E7A9F15802202A48D801A151F896
:1019140022F000BF591A0008A3190008A3190008EF
:10192400A3190008A3190008A3190008A3190008A3
:10193400A3190008A3190008A3190008B519000881
:10194400D71900083D1A0008DD180008DD18000842
:10195400DD180008A3190008A3190008A31900083A
:10196400A3190008A3190008A3190008A319000863
:10197400A31900087B1A0008EB190008A319000832
:10198400151A0008A3190008591A0008A319000819
:10199400A3190008591A0008B9F1500F6BD0DAF8EE
:1019A4000430DAF8000001223946984701360BE08A
:1019B40054F8042BCDE9003543463AB134490422A6
:1019C4005046FFF7EFFC0644791C0BE7314905222A
:1019D400F6E754F8042B8DF81C20CDE900350122DC
:1019E400434607A9ECE707A954F8040B0493FFF74F
:1019F400D8FABBF1FF3F049B014604D0079A9345F4
:101A040038BFCDF81CB0CDE90035079A4346D7E777
:101A140054F8041B0593084604911DF013FCBBF114
:101A2400FF3FDDE90413024602D0584528BF5A4659
:101A3400CDE900354346C3E7CDE902356123009380
:101A4400CDF804800A23012254F8041B5046FFF702
:101A540007FDB8E729F00F0209F101010F3A01F07F
:101A64000601D2B2CDE90235CDF804800092C1F16D
:101A740010030022E8E7CDE9023561230093CDF895
:101A840004801023F5E7304609B0BDE8F08F00BFAD
:101A9400BCFB0208C1FB02080EB403B503AA52F84A
:101AA400041B0192FFF798FE02B05DF804EB03B04B
:101AB400704790F9001003780029024601DB1846AC
:101AC400704703F07F004023184206D112F8013F0B
:101AD40003F0C001802904D0704720EA03005B08AA
:101AE400F2E703F03F0343EA8010EFE7431C184694
:101AF4000133027802F0C002802AF8D0704703460E
:101B04000020994200D8704711F8012D02F0C0025C
:101B1400802A18BF0130F4E70144034600209942AB
:101B24001A4600D87047127802F0C002802A03F1E6
:101B3400010318BF0130F2E77F289DBF024B185CF8
:101B4400C0F3400000207047F2FB02087F289DBFCD
:101B5400024B185CC0F3C00000207047F2FB02087F
:101B64007F289DBF024B185CC0F3800000207047A3
:101B7400F2FB02087F289DBF024B185CC0F3801063
:101B840000207047F2FB02087F2809D8064B1B5C33
:101B940013F00C0F06D1A0F15F035842584170476F
:101BA4000020704701207047F2FB02087F289DBF88
:101BB400024B185CC0F3001000207047F2FB0208CF
:101BC4007F289DBF024B185CC0F340100020704773
:101BD400F2FB020808B50246FFF7E8FF00B1203225
:101BE400104608BD08B50246FFF7EAFF00B1203AE7
:101BF400104608BD3038092884BF20F0200007387B
:101C0400704710B501440246E5240020914203D8F0
:101C1400B0FA80F0400917E012F8013B30B103F04C
:101C2400C003802B11D1431ED8B2EFE7BF2B09D9D3
:101C3400F72B09D8DB0803F0060344FA03F303F097
:101C44000300E3E71B06E1D510BD0020FCE70239E1
:101C540081420B4603D20233181A401070471A8887
:101C64000239002AF4D0F6E7B2EB131F70B54FEA3D
:101C7400131415D9121B03F00F0301EB440115468D
:101C84000E46012D31F8024B18BF3468DC40A4B273
:101C9400013D20F8024BF3D104B9013A104670BD5E
:101CA4000022FBE7F0B5059F0024D21B2646A7427D
:101CB40010D100EB470C01EB47010024A24214D1E0
:101CC4000CEB42031EB101212CF812100233181A36
:101CD4004010F0BD31F8145033F814C06544354455
:101CE40020F814502E0C0134E1E731F81450354437
:101CF4002CF814502E0C0134E0E7F0B4049F0025B6
:101D0400D21B2C46AF420BD100EB470601EB470533
:101D140000239A420FD106EB4201F0BCFFF797BFB4
:101D240031F81560344433F81560A41B20F81540CD
:101D340024140135E6E735F813100C4426F8134053
:101D440024140133E5E72DE9F043079CDDF828E08E
:101D5400DDE908760239154684464FF6FF78A4EB90
:101D6400020955B900EB42011FB1012320F81230DA
:101D74000231BDE8F043FFF76ABF31F8024F013D7D
:101D84004444264405EB0904AC4296BF33F8024BA5
:101D94004FF6FF744444744486EA040E17FA8EF72F
:101DA4002CF8027B4FEA144E360C3F0CD9E738B5B9
:101DB40002290446806838BF02210D4618B1236801
:101DC400B1EB930F07D96900FEF74FFA2368A060BF
:101DD40065F39F03236038BD38B504460C20FEF735
:101DE40029FA23682278054602F00102C3F39D0014
:101DF40023F0030313432B6063686B604000FEF71A
:101E040019FAA8602268A168C2F39D0252001DF06D
:101E14009BF9284638BD10B500EB410002EB4102A6
:101E240009B9084610BD30F8023D32F8024D1B1BBB
:101E3400002B02DB04D10139F2E74FF0FF30F1E768
:101E44000120EFE710B5044638B18068FEF71AFAAE
:101E54002046BDE81040FEF715BA10BD38B505465A
:101E64000C460221FFF7A3FF002C2B78B4BF0122FC
:101E7400002262F300032B70AB68B4BF61422146B9
:101E8400023B012223F8021F090C104602F1010251
:101E9400F8D1686038BD0023C0E90033836070471F
:101EA40028B103789B0702D48068FEF7EBB970472A
:101EB40038B505460C464968FFF779FF22782B7838
:101EC400A86862F300032B7063686B606268A168A2
:101ED4005200BDE838401DF037B90A4629B90178E7
:101EE400426062F3000101707047FFF7B7BF08B5A5
:101EF400FFF7D1FFBDE80840FFF7EFBF920042F0C3
:101F0400020210B402600022C0E901215DF8044B12
:101F14001946FFF7E2BF2DE9F8439DF8207091467A
:101F24009846042106464C46FFF741FF45463FB11B
:101F3400002C78F100030EDAD9F1000468EB4805AF
:101F4400337867F3000333700023736054EA0503A6
:101F540003D1BDE8F8830027F2E7D6E90132591C22
:101F6400716022F81340230C43EA05432A0C1C46F3
:101F74001546EBE72DE9F3418DED010A019C037849
:101F8400E20F62F300030370C4F30F4313F4FF433F
:101F9400074608D13B786FF300033B7000237B6056
:101FA40002B0BDE8F081B3F5FF4FF3D0C4F3C753DB
:101FB400A3F17F05002DEDDB05D1012102B0BDE8C1
:101FC400F041FFF74BBFB3F16F0848BFA3F16008BE
:101FD400C4F31604162D4FEA281844F4000421DC37
:101FE400C5F11705EC4000252E4641463846FFF75B
:101FF400DEFEC7F8048026B1B868720000211DF027
:10200400E9F845B1BB6804FA05F223F81620C5F1D6
:102014001005EC400136B045C2D0BB6823F8164029
:10202400240CF7E7B3F1960605F1090548BFA3F1BF
:10203400870605F00F053611D7E72DE9F843044666
:102044008F18C2F35B020D46511C9846089EFFF799
:10205400AEFE237868F300032370002363602946EF
:102064001FFA86FCB942084602D3401BBDE8F88338
:102074000278A2F13003092B01F1010105D9A2F183
:102084004103192B14D8A2F13703B342EDD2D4E99A
:1020940001E0F0468146B8F1000F10D100EB4E028A
:1020A40013B120F81E300232121A52106260D9E7BE
:1020B400A2F16103192BD8D8A2F15703E5E7B9F8C7
:1020C400002002FB0C3329F8023B08F1FF381B0CFB
:1020D400E1E7F8B5044615461E46C1B1531E1E4439
:1020E4004FF0FF37E9000F3109092046FFF75FFE83
:1020F400237800216FF30003237061604DB9D4E9A4
:10210400011000EB4101FFF7A2FD6060F8BD01275B
:10211400E8E700230F2908DC32788A401343013DA5
:102124009BB201F108013E44F4D16268501C606026
:10213400A068103920F81230E0E738B50B7805783C
:10214400044603F0010305F00100181A0CD163687A
:102154004A68934209D30BD88A68A0681946FFF7E6
:102164005AFEEB0748BF404238BD4FF0FF30F8E756
:102174000120F6E7884210B5044601D0FFF798FE27
:1021840023786FF30003237010BD884210B5044612
:1021940001D0FFF78DFE63683BB12378C3F30002DF
:1021A400C2F1010262F30003237010BD88421FB51F
:1021B400044601D0FFF77CFE626862B90121204623
:1021C400FFF7F5FDA268012313806360237843F0D1
:1021D4000103237010E02378D9070FD5A1686FF3AA
:1021E400000323700123ADF80E30009308460DF16F
:1021F4000E03FFF782FD606004B010BD511C204641
:10220400FFF7D5FDD4E901210123ADF80E30009389
:1022140008460DF10E03FFF745FD6060D6E72DE992
:10222400F8434B6805460E46144603B12AB93146B5
:102234002846BDE8F843FFF73BBE02F10F014FEA21
:10224400111803EB1111FFF7B2FDD6E9010208EBF7
:102254000007AB6807F1004114F00F0401F1FF31EE
:1022640003EB410308BF102402EB400E01469946DC
:102274000022C4F1100401BB6FF0010C0CFB00FC44
:1022840022FA04F403EB0C0023F80C40C8F1010318
:1022940000EB430308F1FF32184652001CF09AFF8A
:1022A400831E17B133F8172092B16F6032782B7800
:1022B40062F300032B70BDE8F8833EF802CD4CEACC
:1022C400020222FA04FC29F802C912040139D2E7F5
:1022D400013FE6E7F0B50E46496885B00546144669
:1022E40001B12AB931462846FFF7E2FD05B0F0BD39
:1022F400FFF75DFDD6E901212346A868FFF7B4FC8A
:10230400686032782B7862F300032B70DB07EDD51D
:1023140000237168ADF80E302209994201D093422E
:102324000FD19142E2D9B36804F00F0433F81220BC
:10233400012303FA04F4013C224213D0ADF80E3019
:1023440008E0B76837F8137057B101239142ADF82C
:102354000E30E8D8A968012348B90B806B60C5E743
:102364000133DAE7BDF80E30002BBFD0F2E700935B
:1023740002460DF10E030846FFF794FC6860B5E7CA
:1023840073B553680C46496899420646154606D308
:1023940008D89268A068FFF73EFD002802DA2346B9
:1023A4002C461D4623782A7861685340DB071BD4EA
:1023B40001313046FFF7FBFC6B680093D4E901213F
:1023C400AB68B068FFF76EFC706023787268C3F383
:1023D4000003002A0CBF002303F00103327863F3E7
:1023E4000002327002B070BD3046FFF7E0FC6B684B
:1023F4000093D4E90121AB68B068FFF77EFCE3E702
:10240400F7B553680C46496899420546164606D303
:1024140024D89268A068FFF7FEFC00281EDA234641
:10242400012734461E462378327861685340DB071F
:1024340016D501312846FFF7BAFC73680093D4E936
:102444000121B368A868FFF72DFC68606A682B78DF
:1024540092B962F300032B7003B0F0BD0027E2E7EA
:102464002846FFF7A4FC73680093D4E90121B368FC
:10247400A868FFF742FCE8E7227802F00102002F87
:10248400E7D0C2F10102E4E72DE9F04F15464A68AE
:102494006B689A420E463EBF2E460B461D46337865
:1024A4007168DB0785B0044621D42B7813F001074B
:1024B4001DD1FFF77CFCD5E9011CA068B6683B463A
:1024C40099420BD100EB4101FFF7C1FB2378606017
:1024D4006FF30003237005B0BDE8F08F36F81320C6
:1024E4003CF813502A4020F813200133E8E7013167
:1024F4002046FFF75CFC96F800A02B78D6F804C0C1
:10250400A0688AEA0307FF4307F0010E47F30007B8
:10251400BFB2D5E901120AF001084AF3000A029792
:102524001FFA8AF703F00109019743F30003B76820
:102534009BB2A1EB0C01A7F1020A00936746834604
:102544000391BFB900EB4C01BEF1000F03D001238E
:1025540020F81C300231FFF77AFB606033782A7868
:10256400C3F30003C2F300021340227863F30002B2
:102574002270B0E73AF8021F019B5940039B013FC8
:102584008844D919B9429BBF32F8021B009B0099B9
:1025940059408944029B08EA090159401EFA81F115
:1025A4002BF8021B4FEA19494FEA18484FEA114E1B
:1025B400C7E72DE9F84F16464A6873689A420D46F4
:1025C4003EBF35460B461E462B786968DB0704463A
:1025D40031D4327812F001072DD1FFF7E8FBD6E9A8
:1025E400013EA9686D68D4F808C0ED1A3A469342D2
:1025F40012D101EB430100220CEB4303954214D1A9
:1026040003EB4503A3EB0C035B10636023786FF3C8
:1026140000032370BDE8F88F31F812003EF8126011
:1026240030432CF812000132E1E731F8120023F8AC
:1026340012000132E2E701312046FFF7B8FB2F78A0
:1026440033786968A068AD68D6E901E203F001094E
:1026540047F3000643F3000307F00108A5F1020C59
:10266400B6B29BB20F4682460125AEEB010E47B9C6
:1026740000EB4101FFF7EBFA2378606043F00103BC
:10268400C7E73CF802BF013F8BEA060BD8440EEBC8
:10269400070BBB4596BF32F802BB9B468BEA030B84
:1026A400D94448EA090B6FEA0B0B15FA8BF52AF8A3
:1026B400025B4FEA19494FEA18482D0CD7E7F0B5E9
:1026C40016464A6873689A4238BF0B460C463CBFAC
:1026D40034461E462778337861685F4017F0010757
:1026E40085B005463AD1FFF762FB237813F0010366
:1026F40028D1D6E9012C6168A868A768891A9A428A
:1027040011D107EB4207002300EB4202994213D197
:1027140002EB4101FFF79BFA2B7868606FF300032B
:102724002B7005B0F0BD37F813403CF813607440CB
:1027340020F813400133E2E737F8134022F813403E
:102744000133E3E7CDE90277019773680093D4E995
:102754000121B368A868FFF7F6FADDE70131FFF756
:1027640026FB3378A868DB4303F001030393237843
:10277400DB4303F001030293012301937368009385
:10278400B368D4E90121FFF7DEFA2B78686043F0DF
:102794000103C5E72DE9F04F4B6885B004460E46AA
:1027A40015460BB1536843B923786FF300032370C4
:1027B4000023636005B0BDE8F08F81422ED1FFF79E
:1027C4000BFBA5420646074600D105466B687168B7
:1027D40020461944FFF7EBFA2268A068C2F39D0271
:1027E400520000211CF0F6FCB368D4F808E0D6F8D7
:1027F40004A00193AB68029300226B6803930EEB71
:102804004A08F4461146039B934231D0DDF804B0E4
:10281400CDF800A0ACF10200002318E0824204D1FC
:10282400FFF7DAFA05460746D0E70027CEE730F887
:10283400029F99443BF8023B1946029B33F812303D
:1028440003FB01930099038001391B0C009100994B
:102854000029ECD14146881C13B1A8F80030014688
:10286400A1EB0E0149100CF1020C01328046CAE7BB
:1028740061602A78337853402278384663F3000243
:10288400227005B0BDE8F04FFFF7DCBA4B6870B5B5
:102894000546144613B11378DA0706D52B786FF37F
:1028A40000032B7000236B6070BD636823B9BDE81F
:1028B40070400121FFF7D2BA0846FFF78DFA0646A9
:1028C4002046FFF789FA012104462846FFF7C6FA95
:1028D400636883B1A3681B88DB0704D532462946A5
:1028E4002846FFF757FFD4E9012101230846FFF7E3
:1028F400BBF9606038B93046FFF7A4FA2046BDE85A
:102904007040FFF79FBA324631463046FFF742FF28
:10291400DEE72DE9F04F0C4651688FB017460131C0
:1029240005460293FFF743FA7A68A8680132520019
:1029340000211CF04FFC2B786FF300032B70002355
:102944006B60796820460131FFF731FA3946204639
:10295400FFF7AEFA029BD4F804905B6801934B45F1
:1029640042D8029BA668D3F80880AB6803933DD392
:10297400424649463046FFF74EFA002832D1039AC0
:102984006060012313806B6023786168C3F30002E5
:1029940000290CBF002202F0010262F30003029A34
:1029A40023703B7812785340DB0718D56B682A787C
:1029B400003B18BF012363F300022A70636873B1FC
:1029C4004FF0FF310BA8FFF792FA0BAA29462846CD
:1029D400FFF7D6FC029A21462046FFF7D1FC0FB040
:1029E400BDE8F08F013001D10023CCE7019B03F156
:1029F4000042013A5300049338F812304FF0000EAD
:102A040018040EF1010156D54FEA490303F1020CF3
:102A14000593002006EB0C0309F101011FFA8EFA5D
:102A240026F8190006936160B446CAF1100B069BA0
:102A34009C4544D3019B38F81220012B02FA0AFB6F
:102A440009D9049B08EB0302CAF1100032F8022CE6
:102A5400C2404BEA020B019A059B891A6960039AEA
:102A640001F10041013902EB41020592049A02325C
:102A74000992A8F10202334408926268049204990C
:102A8400019A8A4227D301F1004B0BF1FF3B06EB7D
:102A94004B0B0021CAF110005E4570D96FF0004164
:102AA4006B682BB103985A1830F81220002A70D0A2
:102AB4006FF0004172E05B009BB28E46A0E7BCF869
:102AC40000E00EFA0AF949EA00002CF8020B2EFA8B
:102AD4000BF080B2ABE7198833F8022C42EA0142CA
:102AE4000999B2FBFBF2591A069100200899DDF806
:102AF40018C00791804663450BD819880844B8BBB1
:102B0400059921F80229049A0591013A023B626071
:102B1400B3E70799BCF8009031F802EF07910EFA79
:102B24000AF141EA18481FFA88F1514319FA80F969
:102B34001FFA81FE090CA9EB0E0EC1EB20412CF803
:102B440002EB01EB2E40D6E739F802EF0EFA0AFE4B
:102B54004EEA1848B1F800E01CFA88FCF44421F865
:102B640002CB4FEA1C4C8B42EED86044013AC6E7D4
:102B74004FF0000CDDF820900699E046F3E7BBF82F
:102B8400003043FA0AF20A4383402BF8022999B22F
:102B940082E7013B6B6083E7013B63606368002B62
:102BA4003FF4F2AE5A1836F81220002AF4D0EBE6BD
:102BB400F0B51F464B6885B004460D4616464BB12A
:102BC4001378DA0706D47B68012B0BD1BB681B880A
:102BD400012B07D123786FF3000323700023636074
:102BE40005B0F0BD01212046FFF738F97368002BCA
:102BF400F6D02846FFF7F0F805463046FFF7ECF824
:102C0400064601A8FFF747F97368B3B1B3681B8898
:102C1400DB070AD52A4621462046FFF7BBFD3B4683
:102C24002246214601A8FFF774FED6E901210123BB
:102C34000846FFF719F8706048B901A8FFF730F9A2
:102C44002846FFF7FFF83046FFF7FCF8C8E72A46A6
:102C540029462846FFF79EFD3B462A46294601A8F9
:102C6400FFF757FED0E710B5D0E90121034601EB89
:102C740042020020914204D31B78DB0748BF404244
:102C840010BD32F8024D44EA0040F3E730B5D0E914
:102C94000124002304EB4202944206D30278D207B3
:102CA40048BF5B420B60012030BDB3F5004F04D236
:102CB40032F8025D45EA0343EEE70020F4E72DE92C
:102CC400F0470546D1B19818D5E901840026A4F14E
:102CD400020E4FF0010C374603EB0209B8F1000F66
:102CE4000ED1B9B3C21A18462B7813F0010FBDE800
:102CF400F04714BFFF2100211CF06CBA1846E3E72B
:102D04003EF8024F103744EA064695F800A0072F14
:102D14000AF0010A02DC08F1FF38DFE7B4B2BAF1C5
:102D2400000F06D0E4435CFA84FC1FFA8CF4CCF365
:102D3400072CE4B249B100F1FF3A00F8014C5345C5
:102D44000BD0083F360A5046DFE782460AF8014BAB
:102D5400CA45F5E71A44121AC6E7BDE8F087000031
:102D6400D0E901329FED0C0A9FED0C7A02EB43038C
:102D74009A4205D30378DB0748BFB1EE400A704797
:102D840033F8021D07EE901AF8EEE77AE0EE077AC0
:102D9400B0EE670AECE700BF0000000000008047C7
:102DA4002DE9F84F44689DF828B00B9F81468A4668
:102DB40015461E469CB982B1551E3B4615F8011FA7
:102DC400184639B930230370002300F8013FC01BB3
:102DD400BDE8F88F03F8011BF0E73846F2E764001A
:102DE4002046FDF727FAD9F80810804622461CF041
:102DF400ABF93846394608EB0402A6F13A03A2F1CE
:102E0400020C0026E045644639D93036392E0C468A
:102E140088BFF61804F8016B4646B242B44638D867
:102E2400BBF1000F0AD00126A4EB000CBCF1030F88
:102E340002BF8C1C81F801B02046F6B14046FDF774
:102E440021FA5DB128461CF0FDF92A18611E1346CB
:102E5400AB4229D8954288BF0020044499F8003039
:102E6400DB0744BF2D2304F8013B3B46621E9A4214
:102E74001FD800232370E01BAAE72146BFE724885C
:102E840044EA0646B6FBFAF42CF802490AFB146637
:102E9400B8E7BCF800C00236BCF1000FBDD0BBF1EE
:102EA400000FEAD00026BFE713F8016D01F8016FA7
:102EB400CEE71978107803F8010B02F80119D6E768
:102EC400D0E9023293423DBF5A1C826018784FF019
:102ED400FF307047036810B5044613B14068FDF72E
:102EE400D1F92046BDE81040FDF7CCB9F8B5054648
:102EF40010200C461F461646FDF79CF9054B8460CE
:102F0400C0E900743444C4606B60034B2860AB6058
:102F1400F8BD00BFC52E0008D92E000802690A2A90
:102F240010B5044635D1836A013383620123A26953
:102F3400E36263696261226F2361002A31D0616EAA
:102F44008A423FBF501CA16E20678A5C28BF0022C2
:102F5400A2613BB9E2692261226A6261626AA2618A
:102F64006366236763690D2B08D1A3690A22934220
:102F7400626103D1D4E901039847A061A3690133D5
:102F840006D163695A1C03D00A2B1CBF0A23A36110
:102F940010BDC36A092A04BF073323F007030133B2
:102FA400C5E7D4E901039847A061DBE770B504469F
:102FB4000D4600262069431C01D1304670BD0A2805
:102FC40008D115B1636B002BF7D02046FFF7A6FF9D
:102FD4000126EFE7FEF7B0FD18B12046FFF79EFF8C
:102FE400E8E72369232B08D12046FFF797FF2369DD
:102FF4005A1CDFD00A2BF7D1DCE75C2BDDD16369E7
:103004000A2BDAD12046FFF789FFE6E70369272B6D
:103014002BD0222B29D0A3F1620113291ED8174AE1
:10302400CA40D2071AD54269272A1ED0222A1CD0A8
:10303400722B1CD1662A06D18269272A15D0222A2E
:1030440013D0722B15D14369622B0CD180692728C8
:103054000BD0A0F12203584258417047662BF0D19F
:103064004269722AE8D00020704701207047662B1D
:10307400F6D0622BF7D14369722BE6E71100090001
:103084002DE9F04F2DED028B436E85B00446A3B1BC
:10309400036F93B929216030FEF7F6F82369E361E1
:1030A40063692362A3696362A36E1A7822615A7802
:1030B40062619B78A3610323236700216165204635
:1030C400FFF774FF256BA36A6364002DE36AA364AE
:1030D40009DA082384F84C300135256305B0BDECCA
:1030E400028BBDE8F08F04D0072384F84C30013DF7
:1030F400F3E7002834D0626B92BB062284F84C209C
:10310400D4E90F205D1E6FF00043D11830F8111080
:103114008D42E3D019D9A16B8A4207D30831490003
:10312400FDF7A3F8A36B20640833A363D4E90F323B
:10313400591CE16322F81350236B01332363CDE759
:10314400013AE263226B013A2263E26BD11830F850
:1031540011108D42F4D3C1D0022384F84C30BDE762
:103164002669771C01D10023F7E72046FFF74EFFBD
:103174008146002800F0C481002384F84C30236980
:10318400752B51D0622B07D16369722B51D1C8467C
:1031940002270D23002612E0722B06D16369622BED
:1031A400F5D0662B49D10523D7E7662B49D163694E
:1031B400722BF8D04E4601270C234FF0000894F8E8
:1031C4004C20002A3FD184F84C303FB12046FFF711
:1031D400A5FE022F02D12046FFF7A0FE2369204658
:1031E400222B14BF4FF0270B4FF0220BFFF796FE54
:1031F40023695B452AD163699B4527D12046FFF7A4
:103204008DFE2046FFF78AFE4FF0030A26B1BA4925
:1032140004F16000FEF77BF804F1600208EE102A66
:10322400002304F1500723E0012700260C23B046B5
:10323400C5E701270D230026BFE7C84601270C2355
:10324400A8E72F46F1E79A42BFD047E74FF0010ABB
:10325400DCE7934538D1013359463846CDE901338B
:10326400FEF719F8019B01932046FFF757FE019BD7
:103274002269511C00F03A81BAF1010F02D10A2AE5
:1032840000F034815345E4D3194604F15000FEF7AD
:1032940058F801212046FFF789FE2046FFF7B6FEC5
:1032A40000287FF46CAF19E72046FFF737FE216949
:1032B4007B2920D13846FDF7E7FF2046FFF72EFE95
:1032C4007B213846FDF7E0FF21690EB17B29EBD065
:1032D4005C2940F0068120460191FFF71FFE236917
:1032E4000199B8F1000F3CD001933846FDF7D3FFA4
:1032F400019B1946D1E0636E00222169481C04D069
:10330400C2B93A2901D07D2914D1D4E919218818E8
:1033140010F8010C3D2807D1D21A19443846FDF79C
:1033240003FF636E013B636618EE100A2C21FDF760
:10333400ABFFC5E721F020005B280DD1013218EE68
:10334400100AC9B2CDE90132FDF79EFF2046FFF70E
:10335400E5FDDDE90132D0E75D2808BF02F1FF3267
:10336400EDE7782B06D85B2B0BD8222B74D053D8DF
:103374000A2B4FD0A3F13001072900F2AB800323BD
:10338400A1E0A3F15C021C2AF4D801A151F822F0B7
:103394005D34000879330008793300087933000874
:1033A40079330008093400083534000879330008FB
:1033B400793300087933000845340008793300086C
:1033C4007933000879330008793300087933000829
:1033D40079330008793300083D3400087933000854
:1033E4007933000879330008313400087933000850
:1033F400393400084934000841340008793300089E
:10340400B1340008072194F84C300C2B65D13846B0
:10341400FDF741FF002326E7552B13D0AAD8272B0D
:103424001AD04E2BA6D1354806F05CF90D21EAE7F7
:103434000821E8E70921E6E70A21E4E70B21E2E7AE
:103444000C21E0E794F84C200D2A07D15C21384682
:103454000193FDF720FF019B1946D4E7752B0CBFA0
:1034640004230823002116E0204603930191FFF76B
:1034740055FD226902921046FEF77CFB002800F0FD
:103484004C810199029A090110460191FEF7B2FBA1
:103494000199039B0144013BE6D2481CBAD0B1F523
:1034A400881FB0D3012384F84C30B3E70223D9E753
:1034B4002046CDE90113FFF731FD22690199029BF2
:1034C400303A02EBC1016269303A072AE5D8013B80
:1034D400EED1E2E701935C2107E7FF29E2D80D2B47
:1034E400E0D1C9B23846FDF7CFFE93E753453CBF60
:1034F400032284F84C20C7E6B7FC0208C0FC02088B
:103504003046FEF723FB064620691EB95F2801D02A
:103514007F283ED9092384F84C3004F15005C1B208
:103524002846FDF7B1FE2046FFF7F8FC2069421C4F
:103534001BD12846FDF799FE7A4F0646002557F819
:10354400041B30461BF08CFE00281CD10F35EDB255
:10355400122D84F84C507FF4C1AD734BD3F8EC3189
:10356400002B0CBF11230F23F7E5FEF7EFFA40B948
:1035740020695F2805D07F2803D8FEF7F1FA0028D8
:10358400D7D0217CCCE7FFF6A9AD0135242DD6D1C7
:10359400A4E5FEF7E5FA68B321692E2935D10B239A
:1035A40084F84C3004F150052846FDF774FE20469B
:1035B400FFF7B4FC0B272069431C3FF48FAD002EAA
:1035C40035D120F02003452B31D16521284684F8DC
:1035D4004C70FDF760FE2046FFF7A0FC21692B2903
:1035E40001D02D29E7D12846FDF755FE2046FFF7E7
:1035F40095FCE0E723692E2B04D16069FEF7B0FA4D
:103604000028C9D1494D002631E00A23302984F825
:103614004C30C7D1636943F02003623B162B9EBF35
:10362400434DDD4005F0010505F00106BAE7FEF75C
:103634008DFA28B121692E290DD184F84C70D2E776
:103644002069FEF78DFA0028F4D123692E2BF1D0DE
:103654005F2BCBD042E521F020034A2BC3D1ECE70A
:10366400652F01D0632F00D10135013601352F7844
:1036740017B12369BB42F3D12046FFF74FFC0FB9C2
:1036840001236AE5212F07D123693D2BF8D1204678
:10369400FFF744FC3A2360E52E2F0FD123692E2B2C
:1036A40002D163692E2B01D05D2356E52046FFF736
:1036B40035FC2046FFF732FC0E234EE50335334636
:1036C40015F8027C632F0FD0652F0DD0194AD35CF7
:1036D40084F84C3003F0FD02552A01D0592B14D143
:1036E400636B01336363F9E415F8012C216991429A
:1036F40006F1010607D12046FFF710FC3346652F7B
:10370400E4D00235DCE7632FFAE7562B02D0582ABF
:103714007FF4E4AC636B013BE4E7012384F84C30B1
:10372400014670E694FD02083006002072FC02088F
:103734000120400068FD02087FB5064601AD7420F3
:1037440085E80E00FCF776FD0446034695E807007D
:1037540043F8046B83E8070001236FF00102C4E916
:103764000A3200250A22C4E90E23C4E90C551420A8
:10377400FCF760FD2021206404F15000FDF7FDFCFE
:10378400294604F16000FDF7F8FC236C20461D80F7
:10379400C4E905552561FFF7C1FB2046FFF7BEFBD1
:1037A4002046FFF7BBFB2046FFF76AFCA36C012B06
:1037B40018BF0723204618BF84F84C3004B070BDEE
:1037C40030B585B001AC05462046FFF78FFB94E881
:1037D4000E002846FFF7B0FF05B030BD30B585B008
:1037E40001AC01460546204617F0F6FE2846FDF7D3
:1037F400ABFB94E80E00FFF79FFF05B030BD10B59A
:10380400044690B1C3684068984704F15000FDF73E
:10381400E3FC04F16000FDF7DFFC206CFCF732FDF3
:103824002046BDE81040FCF72DBD10BDD0E90432A0
:10383400013B036152F8230070470369C9431944EB
:10384400436953F821007047F8B5446A06460D46AB
:10385400B4B1D4E900030B44834222D908310022D5
:1038640001442046FCF70CFD0246B8B961682046C5
:103874000831FCF705FD63682360336A63603462D2
:10388400802D2F4638BF802707F10800FCF7D2FCB3
:103894000023076043600446706202E023682B44FF
:1038A400236060680544656008342044F8BD38B579
:1038B400D0E903329A4204460D4608D310339900E6
:1038C4004069FCF7D2FCE36860611033E360D4E93B
:1038D4000432591C216142F8235038BDF8B504461E
:1038E4001D46D0E9000383420F46164608D3103024
:1038F400C100A068FCF7B9FC2368A0601033236002
:10390400D4E90103421C626053F8301067F31701D5
:1039140043F8301003EBC002D6705560F8BD10B404
:103924008469CAB20023616C5DF8044BFFF7D6BF0B
:1039340010F001021CD110F003030CD000F00F03AF
:10394400062B15D00A2B11D100090E3803288CBF81
:1039540000200120704770B102793A2A08D02D2A3C
:1039640008D18068B0FA80F040097047104670476B
:103974000120704718467047C20702D540F0010085
:103984007047830710D0030900F00F00062803D105
:10399400D80040F002007047A3F10F00022809D8B4
:1039A400064B53F82000704730B103793A2B03D10A
:1039B4008068704702487047024870478CFE0208CE
:1039C4006C220308F82903082DE9F04105460F4647
:1039D40014461646B6B9314620460DF091FA804693
:1039E40000F10801CCB90C212846FFF72DFF4FF454
:1039F4009D73C0E90138014607602846FFF757FF69
:103A0400012008E0013E31462846FFF716FFFFF784
:103A14008FFF0028DED1BDE8F0812846FFF706FFBE
:103A24000646FFF7A9FF013C41F82400002ED9D037
:103A3400B307D7D1686A00F108039E42D2D3426823
:103A440013449E42CED273681B0A0233A2EB830353
:103A54004360C7E738B5D3070D46144602D542F094
:103A6400010038BD0C21FFF7EFFE4FF49D73C0E950
:103A740001340560F5E70000F7B5866996F84C3027
:103A8400092B05460F461FD1D6E91510FDF7BEF9DF
:103A9400902F04460ED1C100002241F0020105F12D
:103AA400280006F0D9F828B14268716C2846FFF75F
:103AB400D1FF02E0200140F002000146284603B095
:103AC400BDE8F040FFF7F3BE0A2B07D10022D6E988
:103AD4001510334604F076F90246E6E70B2B12D1B3
:103AE4000096D6E915100023012204F0E9F90446F2
:103AF4000C212846766CFFF7A7FE4FF49D73C0E9AE
:103B040001340660D9E70C2B13D1D6E915100A2924
:103B140006D8FDF77BF930B1000140F00600CCE790
:103B2400FDF746F9F7E7D6E9152107480BF084F9C4
:103B3400DDE70D2B04D1D6E915100BF01FFCD6E7F9
:103B4400180140F00A00B8E780270308FA2807D0D4
:103B540010F0010306D043080CBF01200020704779
:103B64000120704718467047B0F58D7F07D010F0DC
:103B7400010306D0430814BF012000207047012030
:103B8400704718467047000010F0010204D040F05E
:103B94000100086001207047A8B110F003030FD1A1
:103BA40002793A2A0ED183680B6013F00100F1D137
:103BB4009A0708D11868044BC31A584258417047F1
:103BC4001046704718467047481A03082DE9F04F0D
:103BD4002D2A85B00446884616461D460BD1002181
:103BE400FFF72BFEB8B1870702D10379922B12D0CD
:103BF40005B0BDE8F08F922A20D10021FFF71DFE09
:103C0400014640B1880706D10B79952B0AD120468D
:103C1400FFF70CFE013DA6F11E03012B67D82F46CA
:103C24002A461AE0962BF6D12046FFF7FFFD4B6893
:103C340023F0FF0343F092034B60D9E7962A08BFB1
:103C44000135E8E71E2E45D1FFF78EFFB0B90846CF
:103C5400FFF77CFF002808BF4A4602F1FF396FB125
:103C6400013F39462046FFF7E8FD2369A3EB020C28
:103C74006369014643F82C00002FE3D10021494534
:103C840030D16D1A012DB3D0A6F12303022B01D933
:103C94002A2E70D1691E2046FFF7CFFD01A9FFF738
:103CA40073FF00285BD0232E3BD0242E3CD0252E3E
:103CB4000CBF4FF018094FF02209AF1E002F36DA5F
:103CC400002D40F06B812946019A2046FFF7C2FE81
:103CD40001461FE0FFF73AFF0028CFD10846FFF75F
:103CE40043FFB7E72046FFF7A1FD0131C7E7202EC8
:103CF400CAD100212046FFF7A0FD0246FFF726FFA8
:103D040060B91046FFF730FF0028BDD0FA212046E5
:103D1400FFF78CFD2046FFF7CAFD69E74FF48D716C
:103D2400F5E74FF01609C8E74FF01709C5E739461C
:103D34002046FFF782FD02A9FFF726FF78B1B9F10B
:103D4400220F07D0DDE90112484605F0FBFA013FD6
:103D54000190B3E7029808F0B3FF0028F2DA922E3C
:103D640040F02181D4E9012303EBC20313F8053C9D
:103D74002D2B2FD130E1A6F12603022B45D8691E45
:103D84002046FFF75AFD01A9FFF7FEFE002800F0C8
:103D94003C81A5F10209B9F1000F91DD09F1FF3170
:103DA4002046FFF74AFD02A9FFF7EEFE90B149460F
:103DB4002046FFF742FDC0F3071043280AD04528E8
:103DC40008D02538C7B2029808F07AFF1A2F0FD806
:103DD400002811DAA91C89002046FFF735FD46EAC0
:103DE40005230746C0F80080436000F1080102E1A2
:103DF4001E2F01D90028EDD0DDE90112384605F067
:103E0400A1FAA9F102090190C5E7292E19D10021CF
:103E14002046FFF712FD01A9FFF7B6FE0028D9D00E
:103E240001212046FFF709FDC0F30710342818BF0D
:103E34004038019914BFC0B2022004F0FDFC019087
:103E44003EE7052E6AD100212046FFF7F6FC07461F
:103E54000028BFD010F0030A04D1436803F0FE0326
:103E6400562BB7D001212046FFF7E7FC00F00F03E3
:103E7400022BAFD1BAF1000FACD13B792C2BA9D1D5
:103E8400BB6803F00F02022AA4D11B09482BA1D15D
:103E9400FB68002B9ED09A079CD11A79302A99D1BD
:103EA400D3F808B04FEA10195846FFF741FD68B936
:103EB4005849594807F0B4FEA1693A6809680546AB
:103EC400534607F073FF2846FCF78EF95846FFF770
:103ED40053FD4FEAC9010746012241F0020104F1F2
:103EE400280005F0B9FE47604846FDF74EF8037810
:103EF4005F2B20460BD1FFF799FC2046FFF796FC79
:103F04000023082219462046FFF760FE70E6FFF7FB
:103F14008DFC59462046FFF7CAFC5BE72C2E7FF444
:103F24001EAF01212046FFF788FC00F00F03022B8F
:103F340002467FF44FAF00212046FFF77EFC0028A5
:103F44003FF448AF87077FF445AF0379322B7FF402
:103F540041AF1109C90087683048002241F00201CD
:103F640005F07AFE00283FF435AF406802AA39090B
:103F740004F082FB029B002B3FF42CAFD90707D43B
:103F84009A077FF427AF1968254A91427FF422AF3C
:103F9400039A002A7FF41EAF019391E62046FFF7AF
:103FA40045FC013D8CE6962E14D1D4E9012303EBA4
:103FB400C20313F8153C2D2B7FF40CAF2A4641465F
:103FC4002046FFF701FD00283FF404AF6368023B7D
:103FD40063600DE6062E18D12A4641462046FFF7B7
:103FE400F3FC00287FF404AEF4E62046FFF71EFC41
:103FF400013D41F82500002DF7D1962E03D1394615
:104004002046FFF754FC394684E6362EE4D0332E9E
:10401400AFE600BF24FE0208E014030898FE02087D
:10402400481A03080346006830B508B9106030BD6B
:10403400840702D013600120F9E74468E5B28D4299
:10404400F8D108301060200AF1E700002DE9F04FA4
:1040540093B00024402301904FF400700D46009269
:10406400CDE90534FCF7E6F8202307908020CDE95C
:104074000834FCF7DFF82146CDE90A050FA8CDE99D
:104084000D4405F0B3FD009B002B49D0022B0CBF5F
:104094003F222246696CDFF8E0A2002305A8FFF75F
:1040A4001DFC0027069C002C00F06881013C079948
:1040B400AC4E069401EBC40351F83410DA785B6813
:1040C400C1F31709A84911F802B0A849895C632A09
:1040D40088BF41F4807106EB41060BF030011029D2
:1040E4000BF00F081ED020294BD0002F00F00D81BB
:1040F400B8F1020F40F0FC80012B18D000211BF016
:10410400010F03F1FF3006D074880AEA0404B4F501
:10411400805F08BF5808012800D161B10346B3E0AD
:104124003D22B7E72BB906EB4306984505D801278E
:10413400B8E7002FF7D10027B4E7374636F8021B5B
:1041440001EA0A00B0F5805F0DD195F84C00C1F387
:104154000B01884213D105A81146FFF78DFC2846B0
:10416400FEF78EFFE7E70133434503D2494605A82E
:10417400FFF7B4FB398805A8FFF7D1FBDBE7013370
:10418400D3E78FB103F10041013936F811100AEA7F
:104194000101B1F5405F1ED1002105A8CDE902322D
:1041A400FFF785FBDDE9023206EB4304984526D888
:1041B400009B002B49D1002406EB48082746B04554
:1041C40067D1012F40F088801BF0400F00F08480FD
:1041D400002631467AE0012BA9D995F84C30072BFB
:1041E40040F0FA806249634807F01AFD6A6C296856
:1041F4000446002307F0DAFD2046FBF7F5FF2746C7
:1042040034F8021B01EA0A00B0F5805F1BD195F86F
:104214004C00C9B2884212D1092807D1114605A819
:1042240003930292FFF728FCDDE902232846CDE937
:104234000232FEF725FF029B039A0133B6E7002BF7
:104244003FF475AFC9E7013390E7052AB3D10021E4
:1042540005A80292FFF7F1FA029A0028ABD10121D6
:1042640005A8FFF7EAFA10F0030F029A00F0C280E3
:1042740000F00F0002289ED005A8FFF7D7FA05A882
:10428400FFF7D4FA00230822494605A8FFF79EFC4D
:1042940051E738F8023D03EA0A01B1F5805F05D120
:1042A400DBB2092B8BD10134013788E7214605A8FD
:1042B4000292FFF7C2FA029A00B1013701347EE795
:1042C400FFF7B4FA0136002818BF0146A64205A834
:1042D400F6D1FFF7ECFA2EE71BF0800F06D0002191
:1042E40005A80292FFF7E3FA029A01342346CBE7CA
:1042F400012B3FF41CAF13F001013FF400AFB8F100
:10430400030F7FF46AAF0121F9E608EA030101F023
:10431400010136F8114004EA0A00B0F5805F17D1B4
:1043240095F84C00C4F30B04A04203F101040DD131
:1043340029B9114605A80292FFF79EFB029A029240
:104344002846FEF79DFE029A2346DEE72346CFE683
:10435400494605A80133FFF7C1FA214605A8FFF72E
:10436400DEFA9FE67CFF0208CCFE02080403030881
:1043740030FE0208D411030800F0FFFF0FA805F077
:1043840049FC0E9850B1416822460831FBF778FF8A
:104394000E9B5A681A600D9A5A600D9395F84C302A
:1043A400002B7FF41AAF099B002B3FF416AF0A9B36
:1043B40007981B680C93FBF765FF0A98FBF762FFED
:1043C4002846FFF71CFADDE90C01019B83E8030092
:1043D400184613B0BDE8F08F022B01D1094902E75A
:1043E400042B02D108490948FEE6052B0CBF0849F5
:1043F4000849F8E700283FF4DEAE03793A2B3FF48E
:104404003BAFD8E639FE020860FE0208E014030858
:1044140073FE020888FE020810B5406800B910BD9A
:104424004468FBF72FFF2046F8E70000F8B505467F
:1044340030200E461746FBF716FF072D044605707D
:10444400C66001D0012D0FD1B368C3F30F13A3824B
:1044540003F080FE042320612783E3842020FBF7FC
:10446400E9FEE0622046F8BD014B5B5DEFE700BF6B
:10447400B403030810B50446C06AFBF703FF2046E3
:10448400BDE81040FBF7FEBE30B5058D04460022A2
:10449400954201D8002030BDE36A03EBC2004368B3
:1044A4008B42F8D00132F3E770B504460D46164648
:1044B400FFF7EAFFC0B9E38C228D9A4208D3063392
:1044C400D900E06AFBF7D1FEE38CE0620633E384B3
:1044D400238DE26A591C02EBC300218502F8336084
:1044E400002343704380456070BD034618465B68F3
:1044F400002BFBD1FFF7C8BFF8B544680E462CB9B2
:10450400F8BD042BFCD105230370F9E725462846A2
:104514006D68002DF4D077683946FFF7B5FF0028A1
:10452400F5D00378043B022BEAD8062333701D46EA
:10453400002239462046FFF7B7FF0378002BE0D16D
:1045440005706468F4E7F7B51E4659B111F0030528
:1045540011D14F68FCB294420DD13F0A01F1080415
:10456400BD4201DB03B0F0BD54F8041B01900135DA
:10457400B0470198F4E7334603B0BDE8F04018476C
:10458400024B89689D22FFF7DEBF00BF9D500008E3
:10459400024B89686B22FFF7D6BF00BF156B00087A
:1045A40010B50446084611461A46FFF73FFF236A32
:1045B400436000238360E3690BB9E06110BD1A46D0
:1045C4009B68002BFBD19060F8E78968406A002261
:1045D400090903F02FB88968406A02F0FABF2DE98F
:1045E400F74F05460C46174698461BB1CB8A43F055
:1045F4000803CB822B6AE7831B78002B3FD1686AC0
:1046040043463A46214603B0BDE8F04F03F01BB9D8
:10461400DB6A03EBC60B13F83630053B012B1BD8C2
:104624004FF0000915E0E36A03EBC90213F83930CF
:10463400062B0CD1DBF804105368994207D1BBF860
:104644000220686A002302F07AFE0AF1010A09F1E5
:104654000109238D4B45E6DC01362B6A1A8DB242E3
:10466400D6DCBAF1000FCAD0686ACDF800803B46A8
:104674005246214603F0F5F803B0BDE8F08F00265A
:10468400B246EAE7F8B504460E4611461A46002338
:1046940085780769837003610D4BFFF754FF6368E6
:1046A400A3B9618A39B1228A2AB9606A03F09AF8F7
:1046B400606A02F09BFF238A628A31462046FFF734
:1046C4008EFF003D18BF0125A5702761F8BD00BF0E
:1046D4006D57000870B54378012B05460C4606D18A
:1046E400036A0A461B8B0221FFF75AFF2061A26866
:1046F400216928464C23BDE87040FFF7C3BF70B55D
:1047040013464278012A05460C4604D10A4607217D
:10471400FFF746FFA061A669E268284646233146B2
:10472400FFF7B0FFB08A70BD10B50446406A02F0CE
:10473400FCFF238B226A0133918C9BB29942238321
:1047440038BF938410BD038B013B0383406A03F09D
:104754000BB831B1026801F00303134304BF0B68C3
:104764000360704738B543680D460446114653B993
:10477400054807F055FA2946606004F10800BDE8D1
:104784003840FFF7E6BF38BDE0140308014AFFF7DD
:10479400E9BF00BFBB03030838B50B79092B0CBF75
:1047A400858AC58A4FF6FF739D42044602D1064AA4
:1047B400FFF7D8FF228B638B606AD21A2946BDE8C3
:1047C400384002F081BF00BFC803030870B5054636
:1047D400006AC68A0C46B10706D5214A21462846F6
:1047E400BDE87040FFF7BEBF04F00F01022912D1EB
:1047F4002109AB781BB1838B0133838302E0438BA4
:1048040001334383012651B30022FFF74DFE0378A1
:1048140013B3144AE2E72179914202D1A16809094C
:10482400E7E7994211D1AB78002BD6D10123AB70C5
:10483400A168A1B101F00F03022B18BF896846F0EB
:104844000406C68209090326DDE7A16846F00206CC
:10485400C68209090526D6E704230370467070BD95
:1048640088FE0208E10303084F234E22FFF7AEBF80
:1048740049234822FFF7AABF10B504460021006867
:1048840002F077FF2068102102F042FE2068012127
:10489400BDE8104003F022B810B504460022406A77
:1048A40002F0A8FE54F8240F00231A46194602F019
:1048B400F9FF2046BDE81040FFF7DEBF10B4044600
:1048C4000B466278006A012A03D15DF8044BFFF7B6
:1048D400EBBD02460249606A5DF8044B02F04CBB32
:1048E4002C06030810B4026A0446407801280B46DB
:1048F40004D15DF8044B104602F02FBB606A0249F4
:104904005DF8044B02F038BB34060308036A10B5A3
:104914001A8B0446FFF7F3FE01462046BDE810401B
:10492400FFF7E0BF10B4026A0446407801280B4642
:1049340004D15DF8044B104602F00FBB606A0249D3
:104944005DF8044B02F018BB2406030870B5054655
:104954000C4679B3CA0705D5BDE87040406A4910D2
:1049640002F0F0BD8B0718D004F00F04022C4FEABC
:10497400111109D0062C0BD006291BD0BDE87040BC
:10498400406AC9B202F0C4BDBDE87040FFF796BFEB
:10499400BDE87040406A02F017BE0968406A02F040
:1049A40041FD2279044B2146284653F82230BDE8C4
:1049B4007040184770BD00BF2C0503082DE9F84F5F
:1049C4008B0704460D4616460FD001F00F03022B49
:1049D40014D1D7074FEA111103D4BDE8F84FFFF7FC
:1049E40081BFBDE8F84FFFF769BF4968CBB22D2BF3
:1049F4006FD00AD8062B0CD02C2B11D02946204678
:104A0400464ABDE8F84FFFF7ADBE2E2B73D09D2B61
:104A1400F4D1002EF2D105F10802090A20466EE015
:104A2400022A02D0A968FFF791FFEF68002FE5D0B2
:104A340017F00309E2D17B68DAB28E2AB8460DD1A9
:104A4400022E4FEA132805D007F1080A08F1FF3BAC
:104A5400D9450EDB08F1010857F8288098F804308E
:104A6400312B1ED1022E0CD1606A02F0FCFD012113
:104A740012E05AF8041B2046FFF768FF09F1010908
:104A8400E6E7D8F808102046FFF760FF012EEED1C4
:104A9400606A02F0C2FD0021606ABDE8F84F02F0CE
:104AA400E6BD322BAAD1012E606A0AD102F0B1FD13
:104AB400D8F808100022606A0909BDE8F84F02F02E
:104AC400B9BD022E01D102F0B1FDD8F808100122BF
:104AD400F1E7AA68002A91D0002E8FD15168090A03
:104AE400022906D1D36823B1980702D11B79AC2BD4
:104AF40084D0083292E7002A80D1A96819B9BDE8A8
:104B0400F84F00F00DB88E0703D10B79922B0A46AB
:104B1400E4D005F10802012180E700BFEB0303089C
:104B24002DE9F8434FF0FF3704460E469046002522
:104B340001EB0709B5420AD17B1C03D1606A3146F7
:104B440002F072FE0025B5421AD1BDE8F88358F888
:104B5400251069B18A070BD10B79222B08D10137B3
:104B640008D1606AA9EB0502294602F062FE2F46CD
:104B74000135DFE72046084ABDE8F843FFF7F2BDF8
:104B840058F82510AF4208BF896800222046FFF775
:104B940015FF0135D7E700BFF60303082DE9F74FEA
:104BA40006460C4615461F462046FEF7CFFF08B1C1
:104BB400E5B904E02046FEF7D7FF38B1B5B1706A15
:104BC400394603B0BDE8F04F02F067BD002C54D065
:104BD400A30752D163684FEA132BDBB21E2B1BD100
:104BE400F5B1083404EB8B0B5C450DD103B0BDE883
:104BF400F08F5AF8041B019243463046FFF7CEFF6C
:104C040009F10109019A19E054F8041B3B462A46AC
:104C14003046FFF7C3FFE7E71F2B22D1002DE0D07A
:104C2400D6F80C8008F10103F3600BF1FF3304F1B3
:104C3400080A4FF00009009385F00102009B4B45E0
:104C4400D7DC0BF10101304654F821103B462A46CB
:104C5400FFF7A4FF706A414603B0BDE8F04F02F0CD
:104C640031BC202B03D1A46885F001059CE72D2BD2
:104C740003D1A368002BA1D19AE721463046FFF760
:104C840065FE706A3A46294603B0BDE8F04F02F06B
:104C940009BD2DE9F843C76804461E46BB1CC36022
:104CA4000D46406A394607F10109904602F00AFCB4
:104CB400606A494602F065FDA96800222046FFF7B4
:104CC4007DFE2D690DBB41462046FFF73FFE236A5A
:104CD4001978062913D1606A294602F0FFFD606A3B
:104CE40002F09FFC606A394602F0D7FC606A4946CC
:104CF40002F0E8FB606ABDE8F84302F047BDB20089
:104D0400606A053202F07EFDECE72B79AD2B07D10A
:104D1400A9683B4600222046FFF740FFED68D1E733
:104D2400E9682046FFF712FE606A012102F021FDC6
:104D3400731C424629462046FFF7ABFFD2E700002A
:104D44000023032A2DE9F04104460D46164642701D
:104D54000162C36080F8282002D1408DF8B9E06276
:104D64004FF000083146606AA4F82A802A4602F00F
:104D740063F96778EE68012F04BFA5F82280A5F8CF
:104D8400248086B1B2070ED133793F2B0BD1B168A1
:104D94002046FFF7DBFD606A02F090FD23E080000F
:104DA400FBF761FADBE72B7843B931462046FFF77E
:104DB400CDFD606A102102F0ABFBECE7072B17D1A5
:104DC400012F07D10023A370F1684F4B46222046E0
:104DD400FFF7B9FB20467169FFF7B8FD606A02F07E
:104DE40039FA0028E5D0606ABDE8F04102F0E2B982
:104DF400022B19D13168606A02F014FB6378012B2D
:104E040007D10023A370B168404B4C222046FFF722
:104E14009AFBF1682046FFF799FDEB8ADB07BAD5C8
:104E2400606A02F0FEFBC4E7033B032B40D8012F6A
:104E3400D6F80C8005D1206A04223946FFF734FBEA
:104E44006F833168606A02F0EDFA2B78032B1ED170
:104E54000122606A002102F0C5FC2B78062B1ED1CA
:104E6400606A02F0C3FB01212046FFF727FD606A58
:104E740002F0BCFB606A02F0B9FB0023B268414651
:104E84002046FFF706FF2B78062B84D191E7042BED
:104E940001D10222DDE7052BDFD10322D9E7204629
:104EA4000121FFF70BFD606A012102F062FCE4E7D7
:104EB400012F04D104220A212846FFF7F5FA17210D
:104EC4002046FFF7FBFC16212046FFF70BFDB168D7
:104ED400606A090902F078FB1A212046FFF702FDF7
:104EE40031692046FFF732FD0A212846FFF7CCFA44
:104EF4000378042B3FF45DAF4288606A00230A21E3
:104F040002F01DFA47E700BF754800086D48000825
:104F140001F00F03022B70B504460D46164602D06D
:104F24000B4AFFF71FFC31462046FFF70FFD606A6E
:104F340002F06FFB266A3378033B032B9CBF736834
:104F4400236229092046FFF7CDFC266270BD00BF0D
:104F5400EB030308D1E90212FFF7DABF38B50C46B8
:104F64000546C968FFF7F2FCA1682846BDE8384049
:104F7400FFF7ECBC38B50B79342B04460D460CD145
:104F84008968FFF7E3FCED68AD685DB9606A1021DC
:104F940002F0BEFA0422022115E0406A102102F058
:104FA400B7FAF1E7AB071CD12B799A2B10D110215A
:104FB400606A02F0ADFAA9680029EBD02046FFF739
:104FC400C5FC04220321606ABDE8384002F00ABC33
:104FD4009B2B06D1A9682046FFF7B8FCEB689968BB
:104FE400EAE729462046FFF7B1FCD3E710B50446AB
:104FF4008968FFF7ABFC606A0021BDE8104002F04D
:1050040036BB2DE9F047C668D0F814A0B0F81A9062
:105014008682B31CC36006F10108038BA0F81680D6
:105024000446438388680D46FEF790FDE0B9E768BF
:105034007B1CE360A868FEF797FD18B9606A4146D7
:1050440002F02BFB606A394602F03CFAE96820461C
:10505400FFF77CFC606A414602F034FAA9683B46DB
:1050640001222046FFF79AFD2969C4F814A02046BE
:10507400A4F81A90FFF76AFC606A3146BDE8F0476D
:1050840002F020BA10B504468968FFF75FFC606A35
:10509400BDE8104002F0C5BA01F00F03022B2DE960
:1050A400F04705460C4604D1BDE8F0470909FFF76F
:1050B40039BC002954D011F0030651D10B792C2BA3
:1050C40036D18968FFF742FCE668002E48D016F016
:1050D400030845D17768FAB28E2A334609D13F0ACC
:1050E40006F1080907F1FF3AC2450FDC013756F80B
:1050F40027301A79312A11D128469968FFF726FCFE
:10510400686A0221BDE8F04702F0B1BA59F8041BFD
:105114002846FFF71BFC08F10108E5E7322A1FD1F6
:105124009968686A0222BDE8F047090902F082BA68
:105134002D2B15D18C689CB163681B0A022B07D0F8
:1051440004F108076368B6EB132F10D3BDE8F087AA
:10515400E368002BF4D09A07F2D11B79AC2BEFD182
:1051640021462846054ABDE8F047FFF7FBBA57F841
:10517400041B2846FFF790FF0136E3E7FD0303080D
:10518400F8B54E6801F10804360A054604EB8607B3
:10519400BC4206D1686A31460022BDE8F84002F0FC
:1051A40021BB54F8041B2846FFF7D0FBF0E74B68FB
:1051B4002DE9F04105460E461F0A01F108080024B6
:1051C400BC4201DBBDE8F08158F8041B2846FFF718
:1051D400BDFB6B6843B1023405F1080056F8241096
:1051E400BDE8F041FFF7B5BA0134E9E710B504466C
:1051F400FFF7DDFF606A2221BDE8104002F0D4BA57
:105204002DE9F347C668731CC360044688680D46DD
:10521400FEF79CFC0246F8B9E7687B1CE360A968CA
:105224003B462046FFF7BAFC2046E968FFF78EFBB1
:10523400A868FEF799FCE8B92B690BB96B693BB117
:10524400606A02F007F818B9606A314602F025FA7C
:10525400606A394602F036F901AA712105F110009D
:10526400FEF7E0FE002781464F450AD169692046D2
:10527400FFF76CFB606A314602F024F902B0BDE826
:10528400F087019B53F82780D8F80800FEF75EFCEE
:10529400024608BBD4F80CA00AF10103E360D8F875
:1052A400081053462046FFF779FC2046D8F80C1026
:1052B400FFF74CFBD8F80800FEF756FC0028D9D1BC
:1052C400606A01F0C7FF18B9606A314602F0E5F977
:1052D400606A514602F0F6F80137C5E770B54378C5
:1052E400CE68012B0446154606D1036A0A461B8B79
:1052F4002946FFF755F97061002371691A46204663
:10530400FFF76DF9F1682046FFF720FB062D03D166
:10531400606A002102F02DFA0023606A1A46BDE893
:105324007040012102F0B3BA38B58C68054634B92F
:1053340001222146686ABDE8384002F053BAA10749
:105344001BD16368DAB2922A17D11B0A022B0CD143
:10535400E36853B19A0708D11B79AC2B05D12146D8
:105364000322BDE83840FFF7B9BF21462846FFF7BE
:105374001EFF61680122090ADCE721462846FFF77F
:10538400E5FA01221146D5E72DE9F04F87B0CDE9C2
:105394000221044605AAA42103A81D46FEF742FEE5
:1053A40000270190B9463E46B8464FF0010B019BD9
:1053B4009F420ED11EB1606A494602F0C3F8029BB7
:1053C400606A002B70D033464246294602F06AFADE
:1053D40013E0059B53F827A0BAF1000F59D01AF037
:1053E400030F56D19AF80420A62A19D1B00707D57D
:1053F400304A51462046FFF7B5F907B0BDE8F08FB3
:105404001D2F01D92C4AF4E70BFA07F2DAF8081039
:1054140046F0010649EA02092046FFF797FA1FE021
:10542400A72A0DD1606A02F0E1F8DAF8081046F014
:1054340002062046FFF78AFA08F101080137B6E7A9
:10544400A82A26D1DAF80C2072B191070CD111796F
:10545400AA2907D19268DAF808102046FFF758FD08
:105464000135EBE7AC290ED0DAF8081001F00F0291
:10547400022A01D0114ABCE70909606A02F0A4F8C3
:10548400DAF80C10D5E7062251462046FFF726FF2E
:10549400E6E7B30701D50A4AABE7B8F1000F01D03C
:1054A400084AA6E75146B7E733464246294602F082
:1054B400EEF9A2E7070403080E0403081604030820
:1054C400230403082A04030870B50D464178012912
:1054D4000446134603D12A46FFF762F86861606AFE
:1054E40002F093F86E6900231A4631462046FFF70E
:1054F40076F8B18A606A02F067F8E96829B18B0727
:1055040003D10B79A32B08BF0021204602230022DC
:10551400FFF73AFFB08A70BD036A10B51A8B0446D0
:10552400FFF7D2FF01462046BDE81040FFF7DAB985
:10553400002389681A46FFF727BF00002DE9F04FC2
:10554400044685B00F4602AA422107F10800FEF77F
:1055540069FD236ADFF8E0A01E8B00258346A94677
:105564005D4509D1F9680B79032B3ED132462046BB
:10557400FFF7C5F8054646E0029B53F82530009333
:1055840003AA6C2103F10800FEF74CFD039B196884
:105594000A09732A80460CD02046FFF7D7F9012365
:1055A400434516D3009BD96859B12046FFF7CEF97D
:1055B40007E0022807D052462046FFF7D3F809F146
:1055C40001090135CCE759680B09412BF3D10126B8
:1055D400F5E7039A606A52F823100193002209093F
:1055E40002F028F8019B0133DAE7442B17D18F68C6
:1055F400324639462046FFF782F8BA69D38A43F027
:1056040001030546D3820026ABEB0909B1450BD84B
:1056140029462046FFF766F905B0BDE8F08F32460B
:105624002046FFF751FFA5E70023606A1A460121CF
:1056340002F02DF90136E9E7310403082DE9F743B7
:105644008D680446164635B9C2B102222946606AFD
:1056540002F0C8F812E015F0030776D12B79372B46
:105664000FD122B1406A0222012102F0BBF8204688
:105674002946FFF76BF9606A02F0BFF803B0BDE892
:10568400F0839F2B61D1EB681A79A12A4DD1A22115
:1056940001AA03F10800FEF7C5FCA9688046D9B148
:1056A4008B0719D10B79372B16D126B1411C022255
:1056B400606A02F097F8A9682046FFF747F9606A24
:1056C40002F09BF84FF0010947450BD1B9F1000FE7
:1056D400D4D10322791CBAE72046FFF737F94FF0FB
:1056E4000009F1E7019B53F8271099B18E0711D1F6
:1056F4000E79A6F13700464246412046FFF726F9C7
:10570400B9F1000F0DD03EB9134A29462046FFF7E0
:1057140029F8B3E70026F0E7606A02F06EF8013773
:10572400D2E7002EFBD00D4AEFE7AB684BB19A07E6
:1057340007D11B79372B04D104222946FFF7CEFD6C
:105744009CE7052229462046F8E729462046FFF72C
:10575400FDF8032201217AE74904030857040308EA
:105764000122FFF76BBF000001F00F03022B70B59D
:1057740004460FD00B79492B01D04F2B02D10123C2
:10578400A37070BD4A2BFCD0502BFAD0482B0DD1FE
:105794000D696DB9A378002BF3D1638A002BF0D087
:1057A40020461A4ABDE87040FEF7DCBFCD68F0E73A
:1057B400A3780BB3238A8E6801339BB2012B238217
:1057C4000AD1618A606AA1B1002202F00BF8606A12
:1057D4000222002102F006F829462046FFF7B6F817
:1057E400606A310901F0F0FE606ABDE8704002F0C1
:1057F40004B801F0FBFEEAE7638A013363822946B9
:105804002046BDE87040FFF7A1B800BF620403085A
:105814002DE9F7430C4689680546FFF797F8E668D3
:10582400002E56D07768296AFBB209788E2BA368BC
:1058340019BF04F10C0601273F0A0836072903F0B3
:105844000F024BD1022A47D11A099A2A48D1326849
:105854001179302944D19268002A41D10A2128467D
:10586400FFF72CF82A6AD36A128D3AB93F4A316895
:10587400284603B0BDE8F043FEF774BF5978C90762
:105884000DD559682846FFF719F8022F0AD80023C6
:10589400686A1A46022101F0FAFF012417E0013A6E
:1058A4000833E2E773681A79322AF0D1B4682279AE
:1058B400302AECD19968686A0122090901F09AFE3C
:1058C400A168002301222846FFF75EFD0324A742B6
:1058D40024D803B0BDE8F0830024F8E7022AFBD102
:1058E4001B09B3F5DE7FF7D133681A79302AF3D177
:1058F4009C68002CEBD014F00302EDD123792F2BFC
:10590400EAD1686A01921346114601F0C0FF336878
:10591400019A99682846FFF791FEBEE704F1010851
:10592400B84556F824104FEA840319D20A79322A6A
:1059340016D13344D3F8049099F80430302B0FD1A6
:105944008968686A0022090901F054FED9F8081030
:10595400002301222846FFF717FD08F10104B6E7EA
:105964002846FEF7F3FFA046F7E700BF80040308CC
:1059740010B5026A1278072A04460B4606D0022A9A
:1059840004D0BDE81040064AFEF7ECBE2046194696
:10599400FFF73EFF04F12400BDE81040FEF76CBFA2
:1059A4008F040308F8B54B680C46896805461F0A3E
:1059B400FEF7CCFF0C3400260236B74204F108048B
:1059C40000DCF8BD54F8041C2846FEF7BFFF54F869
:1059D400081C686A09092539C9B201F0E5FEEBE73C
:1059E4002DE9F0414D680C4689680646FEF7AEFF86
:1059F400A5F10D085FFA88F82D0A0C340127AF428F
:105A040001DBBDE8F08154F8041B3046FEF79EFF2D
:105A1400706A414601F0C8FE0137F0E72DE9F04114
:105A2400CD6804460E461DBB0378A3B1036A1D78F6
:105A34008DB9CF21FEF742FFB1682046FEF786FFFD
:105A4400606A2B462A46012101F021FF606ABDE805
:105A5400F04101F0E6BDB168880700F0B68001F0BE
:105A64000F03022B40F0B8802046FEF76FFFEDE7EE
:105A7400A90740F0B5806B68DAB25B2A14D1ED68EF
:105A8400002D40F0AB80006A0378072B40F0A4801F
:105A9400B16801F00F03022B40F09E800422BDE8A0
:105AA400F041D140FEF700BD562A11D10122B16860
:105AB400FEF784FFE9682046FEF748FFA968606A9C
:105AC40009093F39C9B201F06FFE0222B16877E0DB
